{
  "contractName": "WolfageGovernorV1",
  "abi": [
    {
      "inputs": [
        {
          "internalType": "address",
          "name": "timelock_",
          "type": "address"
        },
        {
          "internalType": "address",
          "name": "wefi_",
          "type": "address"
        },
        {
          "internalType": "address",
          "name": "guardian_",
          "type": "address"
        }
      ],
      "payable": false,
      "stateMutability": "nonpayable",
      "type": "constructor"
    },
    {
      "anonymous": false,
      "inputs": [
        {
          "indexed": false,
          "internalType": "uint256",
          "name": "id",
          "type": "uint256"
        }
      ],
      "name": "ProposalCanceled",
      "type": "event"
    },
    {
      "anonymous": false,
      "inputs": [
        {
          "indexed": false,
          "internalType": "uint256",
          "name": "id",
          "type": "uint256"
        },
        {
          "indexed": false,
          "internalType": "address",
          "name": "proposer",
          "type": "address"
        },
        {
          "indexed": false,
          "internalType": "address[]",
          "name": "targets",
          "type": "address[]"
        },
        {
          "indexed": false,
          "internalType": "uint256[]",
          "name": "values",
          "type": "uint256[]"
        },
        {
          "indexed": false,
          "internalType": "string[]",
          "name": "signatures",
          "type": "string[]"
        },
        {
          "indexed": false,
          "internalType": "bytes[]",
          "name": "calldatas",
          "type": "bytes[]"
        },
        {
          "indexed": false,
          "internalType": "uint256",
          "name": "startBlock",
          "type": "uint256"
        },
        {
          "indexed": false,
          "internalType": "uint256",
          "name": "endBlock",
          "type": "uint256"
        },
        {
          "indexed": false,
          "internalType": "string",
          "name": "description",
          "type": "string"
        }
      ],
      "name": "ProposalCreated",
      "type": "event"
    },
    {
      "anonymous": false,
      "inputs": [
        {
          "indexed": false,
          "internalType": "uint256",
          "name": "id",
          "type": "uint256"
        }
      ],
      "name": "ProposalExecuted",
      "type": "event"
    },
    {
      "anonymous": false,
      "inputs": [
        {
          "indexed": false,
          "internalType": "uint256",
          "name": "id",
          "type": "uint256"
        },
        {
          "indexed": false,
          "internalType": "uint256",
          "name": "eta",
          "type": "uint256"
        }
      ],
      "name": "ProposalQueued",
      "type": "event"
    },
    {
      "anonymous": false,
      "inputs": [
        {
          "indexed": false,
          "internalType": "address",
          "name": "voter",
          "type": "address"
        },
        {
          "indexed": false,
          "internalType": "uint256",
          "name": "proposalId",
          "type": "uint256"
        },
        {
          "indexed": false,
          "internalType": "bool",
          "name": "support",
          "type": "bool"
        },
        {
          "indexed": false,
          "internalType": "uint256",
          "name": "votes",
          "type": "uint256"
        }
      ],
      "name": "VoteCast",
      "type": "event"
    },
    {
      "constant": true,
      "inputs": [],
      "name": "BALLOT_TYPEHASH",
      "outputs": [
        {
          "internalType": "bytes32",
          "name": "",
          "type": "bytes32"
        }
      ],
      "payable": false,
      "stateMutability": "view",
      "type": "function"
    },
    {
      "constant": true,
      "inputs": [],
      "name": "DOMAIN_TYPEHASH",
      "outputs": [
        {
          "internalType": "bytes32",
          "name": "",
          "type": "bytes32"
        }
      ],
      "payable": false,
      "stateMutability": "view",
      "type": "function"
    },
    {
      "constant": true,
      "inputs": [],
      "name": "guardian",
      "outputs": [
        {
          "internalType": "address",
          "name": "",
          "type": "address"
        }
      ],
      "payable": false,
      "stateMutability": "view",
      "type": "function"
    },
    {
      "constant": true,
      "inputs": [
        {
          "internalType": "address",
          "name": "",
          "type": "address"
        }
      ],
      "name": "latestProposalIds",
      "outputs": [
        {
          "internalType": "uint256",
          "name": "",
          "type": "uint256"
        }
      ],
      "payable": false,
      "stateMutability": "view",
      "type": "function"
    },
    {
      "constant": true,
      "inputs": [],
      "name": "name",
      "outputs": [
        {
          "internalType": "string",
          "name": "",
          "type": "string"
        }
      ],
      "payable": false,
      "stateMutability": "view",
      "type": "function"
    },
    {
      "constant": true,
      "inputs": [],
      "name": "proposalCount",
      "outputs": [
        {
          "internalType": "uint256",
          "name": "",
          "type": "uint256"
        }
      ],
      "payable": false,
      "stateMutability": "view",
      "type": "function"
    },
    {
      "constant": true,
      "inputs": [
        {
          "internalType": "uint256",
          "name": "",
          "type": "uint256"
        }
      ],
      "name": "proposals",
      "outputs": [
        {
          "internalType": "uint256",
          "name": "id",
          "type": "uint256"
        },
        {
          "internalType": "address",
          "name": "proposer",
          "type": "address"
        },
        {
          "internalType": "uint256",
          "name": "eta",
          "type": "uint256"
        },
        {
          "internalType": "uint256",
          "name": "startBlock",
          "type": "uint256"
        },
        {
          "internalType": "uint256",
          "name": "endBlock",
          "type": "uint256"
        },
        {
          "internalType": "uint256",
          "name": "forVotes",
          "type": "uint256"
        },
        {
          "internalType": "uint256",
          "name": "againstVotes",
          "type": "uint256"
        },
        {
          "internalType": "bool",
          "name": "canceled",
          "type": "bool"
        },
        {
          "internalType": "bool",
          "name": "executed",
          "type": "bool"
        }
      ],
      "payable": false,
      "stateMutability": "view",
      "type": "function"
    },
    {
      "constant": true,
      "inputs": [],
      "name": "timelock",
      "outputs": [
        {
          "internalType": "contract TimelockInterface",
          "name": "",
          "type": "address"
        }
      ],
      "payable": false,
      "stateMutability": "view",
      "type": "function"
    },
    {
      "constant": true,
      "inputs": [],
      "name": "wefi",
      "outputs": [
        {
          "internalType": "contract WefiInterface",
          "name": "",
          "type": "address"
        }
      ],
      "payable": false,
      "stateMutability": "view",
      "type": "function"
    },
    {
      "constant": true,
      "inputs": [],
      "name": "quorumVotes",
      "outputs": [
        {
          "internalType": "uint256",
          "name": "",
          "type": "uint256"
        }
      ],
      "payable": false,
      "stateMutability": "pure",
      "type": "function"
    },
    {
      "constant": true,
      "inputs": [],
      "name": "proposalThreshold",
      "outputs": [
        {
          "internalType": "uint256",
          "name": "",
          "type": "uint256"
        }
      ],
      "payable": false,
      "stateMutability": "pure",
      "type": "function"
    },
    {
      "constant": true,
      "inputs": [],
      "name": "proposalMaxOperations",
      "outputs": [
        {
          "internalType": "uint256",
          "name": "",
          "type": "uint256"
        }
      ],
      "payable": false,
      "stateMutability": "pure",
      "type": "function"
    },
    {
      "constant": true,
      "inputs": [],
      "name": "votingDelay",
      "outputs": [
        {
          "internalType": "uint256",
          "name": "",
          "type": "uint256"
        }
      ],
      "payable": false,
      "stateMutability": "pure",
      "type": "function"
    },
    {
      "constant": true,
      "inputs": [],
      "name": "votingPeriod",
      "outputs": [
        {
          "internalType": "uint256",
          "name": "",
          "type": "uint256"
        }
      ],
      "payable": false,
      "stateMutability": "pure",
      "type": "function"
    },
    {
      "constant": false,
      "inputs": [
        {
          "internalType": "address[]",
          "name": "targets",
          "type": "address[]"
        },
        {
          "internalType": "uint256[]",
          "name": "values",
          "type": "uint256[]"
        },
        {
          "internalType": "string[]",
          "name": "signatures",
          "type": "string[]"
        },
        {
          "internalType": "bytes[]",
          "name": "calldatas",
          "type": "bytes[]"
        },
        {
          "internalType": "string",
          "name": "description",
          "type": "string"
        }
      ],
      "name": "propose",
      "outputs": [
        {
          "internalType": "uint256",
          "name": "",
          "type": "uint256"
        }
      ],
      "payable": false,
      "stateMutability": "nonpayable",
      "type": "function"
    },
    {
      "constant": false,
      "inputs": [
        {
          "internalType": "uint256",
          "name": "proposalId",
          "type": "uint256"
        }
      ],
      "name": "queue",
      "outputs": [],
      "payable": false,
      "stateMutability": "nonpayable",
      "type": "function"
    },
    {
      "constant": false,
      "inputs": [
        {
          "internalType": "uint256",
          "name": "proposalId",
          "type": "uint256"
        }
      ],
      "name": "execute",
      "outputs": [],
      "payable": true,
      "stateMutability": "payable",
      "type": "function"
    },
    {
      "constant": false,
      "inputs": [
        {
          "internalType": "uint256",
          "name": "proposalId",
          "type": "uint256"
        }
      ],
      "name": "cancel",
      "outputs": [],
      "payable": false,
      "stateMutability": "nonpayable",
      "type": "function"
    },
    {
      "constant": true,
      "inputs": [
        {
          "internalType": "uint256",
          "name": "proposalId",
          "type": "uint256"
        }
      ],
      "name": "getActions",
      "outputs": [
        {
          "internalType": "address[]",
          "name": "targets",
          "type": "address[]"
        },
        {
          "internalType": "uint256[]",
          "name": "values",
          "type": "uint256[]"
        },
        {
          "internalType": "string[]",
          "name": "signatures",
          "type": "string[]"
        },
        {
          "internalType": "bytes[]",
          "name": "calldatas",
          "type": "bytes[]"
        }
      ],
      "payable": false,
      "stateMutability": "view",
      "type": "function"
    },
    {
      "constant": true,
      "inputs": [
        {
          "internalType": "uint256",
          "name": "proposalId",
          "type": "uint256"
        },
        {
          "internalType": "address",
          "name": "voter",
          "type": "address"
        }
      ],
      "name": "getReceipt",
      "outputs": [
        {
          "components": [
            {
              "internalType": "bool",
              "name": "hasVoted",
              "type": "bool"
            },
            {
              "internalType": "bool",
              "name": "support",
              "type": "bool"
            },
            {
              "internalType": "uint96",
              "name": "votes",
              "type": "uint96"
            }
          ],
          "internalType": "struct WolfageGovernorV1.Receipt",
          "name": "",
          "type": "tuple"
        }
      ],
      "payable": false,
      "stateMutability": "view",
      "type": "function"
    },
    {
      "constant": true,
      "inputs": [
        {
          "internalType": "uint256",
          "name": "proposalId",
          "type": "uint256"
        }
      ],
      "name": "state",
      "outputs": [
        {
          "internalType": "enum WolfageGovernorV1.ProposalState",
          "name": "",
          "type": "uint8"
        }
      ],
      "payable": false,
      "stateMutability": "view",
      "type": "function"
    },
    {
      "constant": false,
      "inputs": [
        {
          "internalType": "uint256",
          "name": "proposalId",
          "type": "uint256"
        },
        {
          "internalType": "bool",
          "name": "support",
          "type": "bool"
        }
      ],
      "name": "castVote",
      "outputs": [],
      "payable": false,
      "stateMutability": "nonpayable",
      "type": "function"
    },
    {
      "constant": false,
      "inputs": [
        {
          "internalType": "uint256",
          "name": "proposalId",
          "type": "uint256"
        },
        {
          "internalType": "bool",
          "name": "support",
          "type": "bool"
        },
        {
          "internalType": "uint8",
          "name": "v",
          "type": "uint8"
        },
        {
          "internalType": "bytes32",
          "name": "r",
          "type": "bytes32"
        },
        {
          "internalType": "bytes32",
          "name": "s",
          "type": "bytes32"
        }
      ],
      "name": "castVoteBySig",
      "outputs": [],
      "payable": false,
      "stateMutability": "nonpayable",
      "type": "function"
    },
    {
      "constant": false,
      "inputs": [],
      "name": "__acceptAdmin",
      "outputs": [],
      "payable": false,
      "stateMutability": "nonpayable",
      "type": "function"
    },
    {
      "constant": false,
      "inputs": [],
      "name": "__abdicate",
      "outputs": [],
      "payable": false,
      "stateMutability": "nonpayable",
      "type": "function"
    },
    {
      "constant": false,
      "inputs": [
        {
          "internalType": "address",
          "name": "newPendingAdmin",
          "type": "address"
        },
        {
          "internalType": "uint256",
          "name": "eta",
          "type": "uint256"
        }
      ],
      "name": "__queueSetTimelockPendingAdmin",
      "outputs": [],
      "payable": false,
      "stateMutability": "nonpayable",
      "type": "function"
    },
    {
      "constant": false,
      "inputs": [
        {
          "internalType": "address",
          "name": "newPendingAdmin",
          "type": "address"
        },
        {
          "internalType": "uint256",
          "name": "eta",
          "type": "uint256"
        }
      ],
      "name": "__executeSetTimelockPendingAdmin",
      "outputs": [],
      "payable": false,
      "stateMutability": "nonpayable",
      "type": "function"
    }
  ],
  "bytecode": "0x60806040523480156200001157600080fd5b506040516200548e3803806200548e833981810160405262000037919081019062000119565b826000806101000a81548173ffffffffffffffffffffffffffffffffffffffff021916908373ffffffffffffffffffffffffffffffffffffffff16021790555081600160006101000a81548173ffffffffffffffffffffffffffffffffffffffff021916908373ffffffffffffffffffffffffffffffffffffffff16021790555080600260006101000a81548173ffffffffffffffffffffffffffffffffffffffff021916908373ffffffffffffffffffffffffffffffffffffffff160217905550505050620001bd565b6000815190506200011381620001a3565b92915050565b6000806000606084860312156200012f57600080fd5b60006200013f8682870162000102565b9350506020620001528682870162000102565b9250506040620001658682870162000102565b9150509250925092565b60006200017c8262000183565b9050919050565b600073ffffffffffffffffffffffffffffffffffffffff82169050919050565b620001ae816200016f565b8114620001ba57600080fd5b50565b6152c180620001cd6000396000f3fe60806040526004361061019c5760003560e01c80634634c61f116100ec578063d33219b41161008a578063ddf0b00911610064578063ddf0b009146105b1578063deaaa7cc146105da578063e23a9a5214610605578063fe0d94c1146106425761019c565b8063d33219b41461051e578063da35c66414610549578063da95691a146105745761019c565b806391500671116100c65780639150067114610488578063b58131b0146104b1578063b9a61961146104dc578063ba567de0146104f35761019c565b80634634c61f1461041d578063760fbc13146104465780637bdbe4d01461045d5761019c565b806321f43e42116101595780633932abb1116101335780633932abb1146103615780633e4f49e61461038c57806340e58ee5146103c9578063452a9320146103f25761019c565b806321f43e42146102cd57806324bc1a64146102f6578063328dd982146103215761019c565b8063013cf08b146101a157806302a251a3146101e657806306fdde031461021157806315373e3d1461023c57806317977c611461026557806320606b70146102a2575b600080fd5b3480156101ad57600080fd5b506101c860048036036101c3919081019061336f565b61065e565b6040516101dd99989796959493929190614c90565b60405180910390f35b3480156101f257600080fd5b506101fb6106e6565b6040516102089190614bc5565b60405180910390f35b34801561021d57600080fd5b506102266106f0565b60405161023391906148e8565b60405180910390f35b34801561024857600080fd5b50610263600480360361025e91908101906133fd565b610729565b005b34801561027157600080fd5b5061028c60048036036102879190810190613188565b610738565b6040516102999190614bc5565b60405180910390f35b3480156102ae57600080fd5b506102b7610750565b6040516102c491906147bb565b60405180910390f35b3480156102d957600080fd5b506102f460048036036102ef91908101906131b1565b610767565b005b34801561030257600080fd5b5061030b6108f4565b6040516103189190614bc5565b60405180910390f35b34801561032d57600080fd5b506103486004803603610343919081019061336f565b610905565b604051610358949392919061475a565b60405180910390f35b34801561036d57600080fd5b50610376610be2565b6040516103839190614bc5565b60405180910390f35b34801561039857600080fd5b506103b360048036036103ae919081019061336f565b610beb565b6040516103c091906148cd565b60405180910390f35b3480156103d557600080fd5b506103f060048036036103eb919081019061336f565b610dcf565b005b3480156103fe57600080fd5b5061040761116b565b6040516104149190614587565b60405180910390f35b34801561042957600080fd5b50610444600480360361043f9190810190613439565b611191565b005b34801561045257600080fd5b5061045b611360565b005b34801561046957600080fd5b50610472611434565b60405161047f9190614bc5565b60405180910390f35b34801561049457600080fd5b506104af60048036036104aa91908101906131b1565b61143d565b005b3480156104bd57600080fd5b506104c66115c5565b6040516104d39190614bc5565b60405180910390f35b3480156104e857600080fd5b506104f16115d6565b005b3480156104ff57600080fd5b506105086116e9565b60405161051591906148b2565b60405180910390f35b34801561052a57600080fd5b5061053361170f565b6040516105409190614897565b60405180910390f35b34801561055557600080fd5b5061055e611734565b60405161056b9190614bc5565b60405180910390f35b34801561058057600080fd5b5061059b600480360361059691908101906131ed565b61173a565b6040516105a89190614bc5565b60405180910390f35b3480156105bd57600080fd5b506105d860048036036105d3919081019061336f565b611d07565b005b3480156105e657600080fd5b506105ef612056565b6040516105fc91906147bb565b60405180910390f35b34801561061157600080fd5b5061062c600480360361062791908101906133c1565b61206d565b6040516106399190614baa565b60405180910390f35b61065c6004803603610657919081019061336f565b61214f565b005b60046020528060005260406000206000915090508060000154908060010160009054906101000a900473ffffffffffffffffffffffffffffffffffffffff169080600201549080600701549080600801549080600901549080600a01549080600b0160009054906101000a900460ff169080600b0160019054906101000a900460ff16905089565b6000614380905090565b6040518060400160405280601381526020017f576f6c6661676520476f7665726e6f722056310000000000000000000000000081525081565b61073433838361239c565b5050565b60056020528060005260406000206000915090505481565b60405161075c9061455d565b604051809103902081565b600260009054906101000a900473ffffffffffffffffffffffffffffffffffffffff1673ffffffffffffffffffffffffffffffffffffffff163373ffffffffffffffffffffffffffffffffffffffff16146107f7576040517f08c379a00000000000000000000000000000000000000000000000000000000081526004016107ee9061490a565b60405180910390fd5b6000809054906101000a900473ffffffffffffffffffffffffffffffffffffffff1673ffffffffffffffffffffffffffffffffffffffff16630825f38f6000809054906101000a900473ffffffffffffffffffffffffffffffffffffffff166000856040516020016108699190614587565b604051602081830303815290604052856040518563ffffffff1660e01b815260040161089894939291906145cb565b600060405180830381600087803b1580156108b257600080fd5b505af11580156108c6573d6000803e3d6000fd5b505050506040513d6000823e3d601f19601f820116820180604052506108ef919081019061332e565b505050565b60006838ebad5cdc90280000905090565b606080606080600060046000878152602001908152602001600020905080600301816004018260050183600601838054806020026020016040519081016040528092919081815260200182805480156109b357602002820191906000526020600020905b8160009054906101000a900473ffffffffffffffffffffffffffffffffffffffff1673ffffffffffffffffffffffffffffffffffffffff1681526020019060010190808311610969575b5050505050935082805480602002602001604051908101604052809291908181526020018280548015610a0557602002820191906000526020600020905b8154815260200190600101908083116109f1575b5050505050925081805480602002602001604051908101604052809291908181526020016000905b82821015610ae9578382906000526020600020018054600181600116156101000203166002900480601f016020809104026020016040519081016040528092919081815260200182805460018160011615610100020316600290048015610ad55780601f10610aaa57610100808354040283529160200191610ad5565b820191906000526020600020905b815481529060010190602001808311610ab857829003601f168201915b505050505081526020019060010190610a2d565b50505050915080805480602002602001604051908101604052809291908181526020016000905b82821015610bcc578382906000526020600020018054600181600116156101000203166002900480601f016020809104026020016040519081016040528092919081815260200182805460018160011615610100020316600290048015610bb85780601f10610b8d57610100808354040283529160200191610bb8565b820191906000526020600020905b815481529060010190602001808311610b9b57829003601f168201915b505050505081526020019060010190610b10565b5050505090509450945094509450509193509193565b60006001905090565b60008160035410158015610bff5750600082115b610c3e576040517f08c379a0000000000000000000000000000000000000000000000000000000008152600401610c359061494a565b60405180910390fd5b600060046000848152602001908152602001600020905080600b0160009054906101000a900460ff1615610c76576002915050610dca565b80600701544311610c8b576000915050610dca565b80600801544311610ca0576001915050610dca565b80600a01548160090154111580610cc15750610cba6108f4565b8160090154105b15610cd0576003915050610dca565b600081600201541415610ce7576004915050610dca565b80600b0160019054906101000a900460ff1615610d08576007915050610dca565b610db481600201546000809054906101000a900473ffffffffffffffffffffffffffffffffffffffff1673ffffffffffffffffffffffffffffffffffffffff1663c1a287e26040518163ffffffff1660e01b815260040160206040518083038186803b158015610d7757600080fd5b505afa158015610d8b573d6000803e3d6000fd5b505050506040513d601f19601f82011682018060405250610daf9190810190613398565b61266b565b4210610dc4576006915050610dca565b60059150505b919050565b6000610dda82610beb565b9050600780811115610de857fe5b816007811115610df457fe5b1415610e35576040517f08c379a0000000000000000000000000000000000000000000000000000000008152600401610e2c906149ea565b60405180910390fd5b6000600460008481526020019081526020016000209050600260009054906101000a900473ffffffffffffffffffffffffffffffffffffffff1673ffffffffffffffffffffffffffffffffffffffff163373ffffffffffffffffffffffffffffffffffffffff161480610f965750610eab6115c5565b600160009054906101000a900473ffffffffffffffffffffffffffffffffffffffff1673ffffffffffffffffffffffffffffffffffffffff1663782d6fe18360010160009054906101000a900473ffffffffffffffffffffffffffffffffffffffff16610f194360016126c0565b6040518363ffffffff1660e01b8152600401610f3692919061462a565b60206040518083038186803b158015610f4e57600080fd5b505afa158015610f62573d6000803e3d6000fd5b505050506040513d601f19601f82011682018060405250610f8691908101906134b0565b6bffffffffffffffffffffffff16105b610fd5576040517f08c379a0000000000000000000000000000000000000000000000000000000008152600401610fcc9061496a565b60405180910390fd5b600181600b0160006101000a81548160ff02191690831515021790555060008090505b816003018054905081101561112e576000809054906101000a900473ffffffffffffffffffffffffffffffffffffffff1673ffffffffffffffffffffffffffffffffffffffff1663591fcdfe83600301838154811061105357fe5b9060005260206000200160009054906101000a900473ffffffffffffffffffffffffffffffffffffffff1684600401848154811061108d57fe5b90600052602060002001548560050185815481106110a757fe5b906000526020600020018660060186815481106110c057fe5b9060005260206000200187600201546040518663ffffffff1660e01b81526004016110ef9594939291906146f9565b600060405180830381600087803b15801561110957600080fd5b505af115801561111d573d6000803e3d6000fd5b505050508080600101915050610ff8565b507f789cf55be980739dad1d0699b93b58e806b51c9d96619bfa8fe0a28abaa7b30c8360405161115e9190614bc5565b60405180910390a1505050565b600260009054906101000a900473ffffffffffffffffffffffffffffffffffffffff1681565b600060405161119f9061455d565b60405180910390206040518060400160405280601381526020017f576f6c6661676520476f7665726e6f7220563100000000000000000000000000815250805190602001206111ec612710565b3060405160200161120094939291906147d6565b604051602081830303815290604052805190602001209050600060405161122690614572565b604051809103902087876040516020016112429392919061481b565b6040516020818303038152906040528051906020012090506000828260405160200161126f929190614526565b6040516020818303038152906040528051906020012090506000600182888888604051600081526020016040526040516112ac9493929190614852565b6020604051602081039080840390855afa1580156112ce573d6000803e3d6000fd5b505050602060405103519050600073ffffffffffffffffffffffffffffffffffffffff168173ffffffffffffffffffffffffffffffffffffffff16141561134a576040517f08c379a000000000000000000000000000000000000000000000000000000000815260040161134190614b4a565b60405180910390fd5b611355818a8a61239c565b505050505050505050565b600260009054906101000a900473ffffffffffffffffffffffffffffffffffffffff1673ffffffffffffffffffffffffffffffffffffffff163373ffffffffffffffffffffffffffffffffffffffff16146113f0576040517f08c379a00000000000000000000000000000000000000000000000000000000081526004016113e7906149ca565b60405180910390fd5b6000600260006101000a81548173ffffffffffffffffffffffffffffffffffffffff021916908373ffffffffffffffffffffffffffffffffffffffff160217905550565b6000600a905090565b600260009054906101000a900473ffffffffffffffffffffffffffffffffffffffff1673ffffffffffffffffffffffffffffffffffffffff163373ffffffffffffffffffffffffffffffffffffffff16146114cd576040517f08c379a00000000000000000000000000000000000000000000000000000000081526004016114c490614aea565b60405180910390fd5b6000809054906101000a900473ffffffffffffffffffffffffffffffffffffffff1673ffffffffffffffffffffffffffffffffffffffff16633a66f9016000809054906101000a900473ffffffffffffffffffffffffffffffffffffffff1660008560405160200161153f9190614587565b604051602081830303815290604052856040518563ffffffff1660e01b815260040161156e94939291906145cb565b602060405180830381600087803b15801561158857600080fd5b505af115801561159c573d6000803e3d6000fd5b505050506040513d601f19601f820116820180604052506115c09190810190613305565b505050565b60006801236efcbcbb340000905090565b600260009054906101000a900473ffffffffffffffffffffffffffffffffffffffff1673ffffffffffffffffffffffffffffffffffffffff163373ffffffffffffffffffffffffffffffffffffffff1614611666576040517f08c379a000000000000000000000000000000000000000000000000000000000815260040161165d9061492a565b60405180910390fd5b6000809054906101000a900473ffffffffffffffffffffffffffffffffffffffff1673ffffffffffffffffffffffffffffffffffffffff16630e18b6816040518163ffffffff1660e01b8152600401600060405180830381600087803b1580156116cf57600080fd5b505af11580156116e3573d6000803e3d6000fd5b50505050565b600160009054906101000a900473ffffffffffffffffffffffffffffffffffffffff1681565b6000809054906101000a900473ffffffffffffffffffffffffffffffffffffffff1681565b60035481565b60006117446115c5565b600160009054906101000a900473ffffffffffffffffffffffffffffffffffffffff1673ffffffffffffffffffffffffffffffffffffffff1663782d6fe13361178e4360016126c0565b6040518363ffffffff1660e01b81526004016117ab9291906145a2565b60206040518083038186803b1580156117c357600080fd5b505afa1580156117d7573d6000803e3d6000fd5b505050506040513d601f19601f820116820180604052506117fb91908101906134b0565b6bffffffffffffffffffffffff1611611849576040517f08c379a000000000000000000000000000000000000000000000000000000000815260040161184090614b2a565b60405180910390fd5b8451865114801561185b575083518651145b8015611868575082518651145b6118a7576040517f08c379a000000000000000000000000000000000000000000000000000000000815260040161189e9061498a565b60405180910390fd5b6000865114156118ec576040517f08c379a00000000000000000000000000000000000000000000000000000000081526004016118e390614b0a565b60405180910390fd5b6118f4611434565b86511115611937576040517f08c379a000000000000000000000000000000000000000000000000000000000815260040161192e90614aca565b60405180910390fd5b6000600560003373ffffffffffffffffffffffffffffffffffffffff1673ffffffffffffffffffffffffffffffffffffffff16815260200190815260200160002054905060008114611a4657600061198e82610beb565b90506001600781111561199d57fe5b8160078111156119a957fe5b14156119ea576040517f08c379a00000000000000000000000000000000000000000000000000000000081526004016119e190614a0a565b60405180910390fd5b600060078111156119f757fe5b816007811115611a0357fe5b1415611a44576040517f08c379a0000000000000000000000000000000000000000000000000000000008152600401611a3b90614a2a565b60405180910390fd5b505b6000611a5943611a54610be2565b61266b565b90506000611a6e82611a696106e6565b61266b565b9050600360008154809291906001019190505550611a8a6128f1565b604051806101a0016040528060035481526020013373ffffffffffffffffffffffffffffffffffffffff168152602001600081526020018b81526020018a815260200189815260200188815260200184815260200183815260200160008152602001600081526020016000151581526020016000151581525090508060046000836000015181526020019081526020016000206000820151816000015560208201518160010160006101000a81548173ffffffffffffffffffffffffffffffffffffffff021916908373ffffffffffffffffffffffffffffffffffffffff160217905550604082015181600201556060820151816003019080519060200190611b94929190612973565b506080820151816004019080519060200190611bb19291906129fd565b5060a0820151816005019080519060200190611bce929190612a4a565b5060c0820151816006019080519060200190611beb929190612aaa565b5060e082015181600701556101008201518160080155610120820151816009015561014082015181600a015561016082015181600b0160006101000a81548160ff02191690831515021790555061018082015181600b0160016101000a81548160ff021916908315150217905550905050806000015160056000836020015173ffffffffffffffffffffffffffffffffffffffff1673ffffffffffffffffffffffffffffffffffffffff168152602001908152602001600020819055507f7d84a6263ae0d98d3329bd7b46bb4e8d6f98cd35a7adb45c274c8b7fd5ebd5e08160000151338c8c8c8c89898e604051611ceb99989796959493929190614be0565b60405180910390a1806000015194505050505095945050505050565b60046007811115611d1457fe5b611d1d82610beb565b6007811115611d2857fe5b14611d68576040517f08c379a0000000000000000000000000000000000000000000000000000000008152600401611d5f906149aa565b60405180910390fd5b60006004600083815260200190815260200160002090506000611e29426000809054906101000a900473ffffffffffffffffffffffffffffffffffffffff1673ffffffffffffffffffffffffffffffffffffffff16636a42b8f86040518163ffffffff1660e01b815260040160206040518083038186803b158015611dec57600080fd5b505afa158015611e00573d6000803e3d6000fd5b505050506040513d601f19601f82011682018060405250611e249190810190613398565b61266b565b905060008090505b826003018054905081101561200e57612001836003018281548110611e5257fe5b9060005260206000200160009054906101000a900473ffffffffffffffffffffffffffffffffffffffff16846004018381548110611e8c57fe5b9060005260206000200154856005018481548110611ea657fe5b906000526020600020018054600181600116156101000203166002900480601f016020809104026020016040519081016040528092919081815260200182805460018160011615610100020316600290048015611f445780601f10611f1957610100808354040283529160200191611f44565b820191906000526020600020905b815481529060010190602001808311611f2757829003601f168201915b5050505050866006018581548110611f5857fe5b906000526020600020018054600181600116156101000203166002900480601f016020809104026020016040519081016040528092919081815260200182805460018160011615610100020316600290048015611ff65780601f10611fcb57610100808354040283529160200191611ff6565b820191906000526020600020905b815481529060010190602001808311611fd957829003601f168201915b50505050508661271d565b8080600101915050611e31565b508082600201819055507f9a2e42fd6722813d69113e7d0079d3d940171428df7373df9c7f7617cfda28928382604051612049929190614d1d565b60405180910390a1505050565b60405161206290614572565b604051809103902081565b612075612b0a565b60046000848152602001908152602001600020600c0160008373ffffffffffffffffffffffffffffffffffffffff1673ffffffffffffffffffffffffffffffffffffffff1681526020019081526020016000206040518060600160405290816000820160009054906101000a900460ff161515151581526020016000820160019054906101000a900460ff161515151581526020016000820160029054906101000a90046bffffffffffffffffffffffff166bffffffffffffffffffffffff166bffffffffffffffffffffffff1681525050905092915050565b6005600781111561215c57fe5b61216582610beb565b600781111561217057fe5b146121b0576040517f08c379a00000000000000000000000000000000000000000000000000000000081526004016121a790614a4a565b60405180910390fd5b6000600460008381526020019081526020016000209050600181600b0160016101000a81548160ff02191690831515021790555060008090505b8160030180549050811015612360576000809054906101000a900473ffffffffffffffffffffffffffffffffffffffff1673ffffffffffffffffffffffffffffffffffffffff16630825f38f83600401838154811061224557fe5b906000526020600020015484600301848154811061225f57fe5b9060005260206000200160009054906101000a900473ffffffffffffffffffffffffffffffffffffffff1685600401858154811061229957fe5b90600052602060002001548660050186815481106122b357fe5b906000526020600020018760060187815481106122cc57fe5b9060005260206000200188600201546040518763ffffffff1660e01b81526004016122fb9594939291906146f9565b6000604051808303818588803b15801561231457600080fd5b505af1158015612328573d6000803e3d6000fd5b50505050506040513d6000823e3d601f19601f82011682018060405250612352919081019061332e565b5080806001019150506121ea565b507f712ae1383f79ac853f8d882153778e0260ef8f03b504e2866e0593e04d2b291f826040516123909190614bc5565b60405180910390a15050565b600160078111156123a957fe5b6123b283610beb565b60078111156123bd57fe5b146123fd576040517f08c379a00000000000000000000000000000000000000000000000000000000081526004016123f490614a8a565b60405180910390fd5b6000600460008481526020019081526020016000209050600081600c0160008673ffffffffffffffffffffffffffffffffffffffff1673ffffffffffffffffffffffffffffffffffffffff1681526020019081526020016000209050600015158160000160009054906101000a900460ff161515146124b1576040517f08c379a00000000000000000000000000000000000000000000000000000000081526004016124a890614b6a565b60405180910390fd5b6000600160009054906101000a900473ffffffffffffffffffffffffffffffffffffffff1673ffffffffffffffffffffffffffffffffffffffff1663782d6fe18785600701546040518363ffffffff1660e01b815260040161251492919061462a565b60206040518083038186803b15801561252c57600080fd5b505afa158015612540573d6000803e3d6000fd5b505050506040513d601f19601f8201168201806040525061256491908101906134b0565b90508315612595576125888360090154826bffffffffffffffffffffffff1661266b565b83600901819055506125ba565b6125b183600a0154826bffffffffffffffffffffffff1661266b565b83600a01819055505b60018260000160006101000a81548160ff021916908315150217905550838260000160016101000a81548160ff021916908315150217905550808260000160026101000a8154816bffffffffffffffffffffffff02191690836bffffffffffffffffffffffff1602179055507f877856338e13f63d0c36822ff0ef736b80934cd90574a3a5bc9262c39d217c468686868460405161265b9493929190614653565b60405180910390a1505050505050565b6000808284019050838110156126b6576040517f08c379a00000000000000000000000000000000000000000000000000000000081526004016126ad90614a6a565b60405180910390fd5b8091505092915050565b600082821115612705576040517f08c379a00000000000000000000000000000000000000000000000000000000081526004016126fc90614b8a565b60405180910390fd5b818303905092915050565b6000804690508091505090565b6000809054906101000a900473ffffffffffffffffffffffffffffffffffffffff1673ffffffffffffffffffffffffffffffffffffffff1663f2b065378686868686604051602001612773959493929190614698565b604051602081830303815290604052805190602001206040518263ffffffff1660e01b81526004016127a591906147bb565b60206040518083038186803b1580156127bd57600080fd5b505afa1580156127d1573d6000803e3d6000fd5b505050506040513d601f19601f820116820180604052506127f591908101906132dc565b15612835576040517f08c379a000000000000000000000000000000000000000000000000000000000815260040161282c90614aaa565b60405180910390fd5b6000809054906101000a900473ffffffffffffffffffffffffffffffffffffffff1673ffffffffffffffffffffffffffffffffffffffff16633a66f90186868686866040518663ffffffff1660e01b8152600401612897959493929190614698565b602060405180830381600087803b1580156128b157600080fd5b505af11580156128c5573d6000803e3d6000fd5b505050506040513d601f19601f820116820180604052506128e99190810190613305565b505050505050565b604051806101a0016040528060008152602001600073ffffffffffffffffffffffffffffffffffffffff1681526020016000815260200160608152602001606081526020016060815260200160608152602001600081526020016000815260200160008152602001600081526020016000151581526020016000151581525090565b8280548282559060005260206000209081019282156129ec579160200282015b828111156129eb5782518260006101000a81548173ffffffffffffffffffffffffffffffffffffffff021916908373ffffffffffffffffffffffffffffffffffffffff16021790555091602001919060010190612993565b5b5090506129f99190612b3d565b5090565b828054828255906000526020600020908101928215612a39579160200282015b82811115612a38578251825591602001919060010190612a1d565b5b509050612a469190612b80565b5090565b828054828255906000526020600020908101928215612a99579160200282015b82811115612a98578251829080519060200190612a88929190612ba5565b5091602001919060010190612a6a565b5b509050612aa69190612c25565b5090565b828054828255906000526020600020908101928215612af9579160200282015b82811115612af8578251829080519060200190612ae8929190612c51565b5091602001919060010190612aca565b5b509050612b069190612cd1565b5090565b604051806060016040528060001515815260200160001515815260200160006bffffffffffffffffffffffff1681525090565b612b7d91905b80821115612b7957600081816101000a81549073ffffffffffffffffffffffffffffffffffffffff021916905550600101612b43565b5090565b90565b612ba291905b80821115612b9e576000816000905550600101612b86565b5090565b90565b828054600181600116156101000203166002900490600052602060002090601f016020900481019282601f10612be657805160ff1916838001178555612c14565b82800160010185558215612c14579182015b82811115612c13578251825591602001919060010190612bf8565b5b509050612c219190612b80565b5090565b612c4e91905b80821115612c4a5760008181612c419190612cfd565b50600101612c2b565b5090565b90565b828054600181600116156101000203166002900490600052602060002090601f016020900481019282601f10612c9257805160ff1916838001178555612cc0565b82800160010185558215612cc0579182015b82811115612cbf578251825591602001919060010190612ca4565b5b509050612ccd9190612b80565b5090565b612cfa91905b80821115612cf65760008181612ced9190612d45565b50600101612cd7565b5090565b90565b50805460018160011615610100020316600290046000825580601f10612d235750612d42565b601f016020900490600052602060002090810190612d419190612b80565b5b50565b50805460018160011615610100020316600290046000825580601f10612d6b5750612d8a565b601f016020900490600052602060002090810190612d899190612b80565b5b50565b600081359050612d9c816151f4565b92915050565b600082601f830112612db357600080fd5b8135612dc6612dc182614d73565b614d46565b91508181835260208401935060208101905083856020840282011115612deb57600080fd5b60005b83811015612e1b5781612e018882612d8d565b845260208401935060208301925050600181019050612dee565b5050505092915050565b600082601f830112612e3657600080fd5b8135612e49612e4482614d9b565b614d46565b9150818183526020840193506020810190508360005b83811015612e8f5781358601612e758882612fe4565b845260208401935060208301925050600181019050612e5f565b5050505092915050565b600082601f830112612eaa57600080fd5b8135612ebd612eb882614dc3565b614d46565b9150818183526020840193506020810190508360005b83811015612f035781358601612ee9888261308c565b845260208401935060208301925050600181019050612ed3565b5050505092915050565b600082601f830112612f1e57600080fd5b8135612f31612f2c82614deb565b614d46565b91508181835260208401935060208101905083856020840282011115612f5657600080fd5b60005b83811015612f865781612f6c8882613134565b845260208401935060208301925050600181019050612f59565b5050505092915050565b600081359050612f9f8161520b565b92915050565b600081519050612fb48161520b565b92915050565b600081359050612fc981615222565b92915050565b600081519050612fde81615222565b92915050565b600082601f830112612ff557600080fd5b813561300861300382614e13565b614d46565b9150808252602083016020830185838301111561302457600080fd5b61302f83828461518a565b50505092915050565b600082601f83011261304957600080fd5b815161305c61305782614e3f565b614d46565b9150808252602083016020830185838301111561307857600080fd5b613083838284615199565b50505092915050565b600082601f83011261309d57600080fd5b81356130b06130ab82614e6b565b614d46565b915080825260208301602083018583830111156130cc57600080fd5b6130d783828461518a565b50505092915050565b600082601f8301126130f157600080fd5b81356131046130ff82614e97565b614d46565b9150808252602083016020830185838301111561312057600080fd5b61312b83828461518a565b50505092915050565b60008135905061314381615239565b92915050565b60008151905061315881615239565b92915050565b60008135905061316d81615250565b92915050565b60008151905061318281615267565b92915050565b60006020828403121561319a57600080fd5b60006131a884828501612d8d565b91505092915050565b600080604083850312156131c457600080fd5b60006131d285828601612d8d565b92505060206131e385828601613134565b9150509250929050565b600080600080600060a0868803121561320557600080fd5b600086013567ffffffffffffffff81111561321f57600080fd5b61322b88828901612da2565b955050602086013567ffffffffffffffff81111561324857600080fd5b61325488828901612f0d565b945050604086013567ffffffffffffffff81111561327157600080fd5b61327d88828901612e99565b935050606086013567ffffffffffffffff81111561329a57600080fd5b6132a688828901612e25565b925050608086013567ffffffffffffffff8111156132c357600080fd5b6132cf888289016130e0565b9150509295509295909350565b6000602082840312156132ee57600080fd5b60006132fc84828501612fa5565b91505092915050565b60006020828403121561331757600080fd5b600061332584828501612fcf565b91505092915050565b60006020828403121561334057600080fd5b600082015167ffffffffffffffff81111561335a57600080fd5b61336684828501613038565b91505092915050565b60006020828403121561338157600080fd5b600061338f84828501613134565b91505092915050565b6000602082840312156133aa57600080fd5b60006133b884828501613149565b91505092915050565b600080604083850312156133d457600080fd5b60006133e285828601613134565b92505060206133f385828601612d8d565b9150509250929050565b6000806040838503121561341057600080fd5b600061341e85828601613134565b925050602061342f85828601612f90565b9150509250929050565b600080600080600060a0868803121561345157600080fd5b600061345f88828901613134565b955050602061347088828901612f90565b94505060406134818882890161315e565b935050606061349288828901612fba565b92505060806134a388828901612fba565b9150509295509295909350565b6000602082840312156134c257600080fd5b60006134d084828501613173565b91505092915050565b60006134e58383613540565b60208301905092915050565b60006134fd8383613781565b905092915050565b600061351183836138be565b905092915050565b600061352583836144db565b60208301905092915050565b61353a816150d6565b82525050565b6135498161504c565b82525050565b6135588161504c565b82525050565b600061356982614f2d565b6135738185614fb9565b935061357e83614ec3565b8060005b838110156135af57815161359688826134d9565b97506135a183614f85565b925050600181019050613582565b5085935050505092915050565b60006135c782614f38565b6135d18185614fca565b9350836020820285016135e385614ed3565b8060005b8581101561361f578484038952815161360085826134f1565b945061360b83614f92565b925060208a019950506001810190506135e7565b50829750879550505050505092915050565b600061363c82614f43565b6136468185614fdb565b93508360208202850161365885614ee3565b8060005b8581101561369457848403895281516136758582613505565b945061368083614f9f565b925060208a0199505060018101905061365c565b50829750879550505050505092915050565b60006136b182614f4e565b6136bb8185614fec565b93506136c683614ef3565b8060005b838110156136f75781516136de8882613519565b97506136e983614fac565b9250506001810190506136ca565b5085935050505092915050565b61370d8161505e565b82525050565b61371c8161505e565b82525050565b61372b8161506a565b82525050565b61374261373d8261506a565b6151cc565b82525050565b600061375382614f64565b61375d818561500e565b935061376d818560208601615199565b613776816151d6565b840191505092915050565b600061378c82614f59565b6137968185614ffd565b93506137a6818560208601615199565b6137af816151d6565b840191505092915050565b6000815460018116600081146137d757600181146137fd57613841565b607f60028304166137e8818761500e565b955060ff198316865260208601935050613841565b6002820461380b818761500e565b955061381685614f03565b60005b8281101561383857815481890152600182019150602081019050613819565b80880195505050505b505092915050565b613852816150e8565b82525050565b6138618161510c565b82525050565b61387081615130565b82525050565b61387f81615142565b82525050565b600061389082614f7a565b61389a8185615030565b93506138aa818560208601615199565b6138b3816151d6565b840191505092915050565b60006138c982614f6f565b6138d3818561501f565b93506138e3818560208601615199565b6138ec816151d6565b840191505092915050565b600061390282614f6f565b61390c8185615030565b935061391c818560208601615199565b613925816151d6565b840191505092915050565b60008154600181166000811461394d5760018114613973576139b7565b607f600283041661395e8187615030565b955060ff1983168652602086019350506139b7565b600282046139818187615030565b955061398c85614f18565b60005b828110156139ae5781548189015260018201915060208101905061398f565b80880195505050505b505092915050565b60006139cc605083615030565b91507f576f6c66616765476f7665726e6f7256313a3a5f5f657865637574655365745460008301527f696d656c6f636b50656e64696e6741646d696e3a2073656e646572206d75737460208301527f20626520676f7620677561726469616e000000000000000000000000000000006040830152606082019050919050565b6000613a58603d83615030565b91507f576f6c66616765476f7665726e6f7256313a3a5f5f61636365707441646d696e60008301527f3a2073656e646572206d75737420626520676f7620677561726469616e0000006020830152604082019050919050565b6000613abe602d83615030565b91507f576f6c66616765476f7665726e6f7256313a3a73746174653a20696e76616c6960008301527f642070726f706f73616c206964000000000000000000000000000000000000006020830152604082019050919050565b6000613b24603383615030565b91507f576f6c66616765476f7665726e6f7256313a3a63616e63656c3a2070726f706f60008301527f7365722061626f7665207468726573686f6c64000000000000000000000000006020830152604082019050919050565b6000613b8a604883615030565b91507f576f6c66616765476f7665726e6f7256313a3a70726f706f73653a2070726f7060008301527f6f73616c2066756e6374696f6e20696e666f726d6174696f6e2061726974792060208301527f6d69736d617463680000000000000000000000000000000000000000000000006040830152606082019050919050565b6000613c16604883615030565b91507f576f6c66616765476f7665726e6f7256313a3a71756575653a2070726f706f7360008301527f616c2063616e206f6e6c7920626520717565756564206966206974206973207360208301527f75636365656465640000000000000000000000000000000000000000000000006040830152606082019050919050565b6000613ca2600283615041565b91507f19010000000000000000000000000000000000000000000000000000000000006000830152600282019050919050565b6000613ce2603a83615030565b91507f576f6c66616765476f7665726e6f7256313a3a5f5f61626469636174653a207360008301527f656e646572206d75737420626520676f7620677561726469616e0000000000006020830152604082019050919050565b6000613d48601883615030565b91507f73657450656e64696e6741646d696e28616464726573732900000000000000006000830152602082019050919050565b6000613d88603a83615030565b91507f576f6c66616765476f7665726e6f7256313a3a63616e63656c3a2063616e6e6f60008301527f742063616e63656c2065786563757465642070726f706f73616c0000000000006020830152604082019050919050565b6000613dee605c83615030565b91507f576f6c66616765476f7665726e6f7256313a3a70726f706f73653a206f6e652060008301527f6c6976652070726f706f73616c207065722070726f706f7365722c20666f756e60208301527f6420616e20616c7265616479206163746976652070726f706f73616c000000006040830152606082019050919050565b6000613e7a605d83615030565b91507f576f6c66616765476f7665726e6f7256313a3a70726f706f73653a206f6e652060008301527f6c6976652070726f706f73616c207065722070726f706f7365722c20666f756e60208301527f6420616e20616c72656164792070656e64696e672070726f706f73616c0000006040830152606082019050919050565b6000613f06604983615030565b91507f576f6c66616765476f7665726e6f7256313a3a657865637574653a2070726f7060008301527f6f73616c2063616e206f6e6c792062652065786563757465642069662069742060208301527f69732071756575656400000000000000000000000000000000000000000000006040830152606082019050919050565b6000613f92601183615030565b91507f6164646974696f6e206f766572666c6f770000000000000000000000000000006000830152602082019050919050565b6000613fd2604383615041565b91507f454950373132446f6d61696e28737472696e67206e616d652c75696e7432353660008301527f20636861696e49642c6164647265737320766572696679696e67436f6e74726160208301527f63742900000000000000000000000000000000000000000000000000000000006040830152604382019050919050565b600061405e602783615041565b91507f42616c6c6f742875696e743235362070726f706f73616c49642c626f6f6c207360008301527f7570706f727429000000000000000000000000000000000000000000000000006020830152602782019050919050565b60006140c4602e83615030565b91507f576f6c66616765476f7665726e6f7256313a3a5f63617374566f74653a20766f60008301527f74696e6720697320636c6f7365640000000000000000000000000000000000006020830152604082019050919050565b600061412a604883615030565b91507f576f6c66616765476f7665726e6f7256313a3a5f71756575654f72526576657260008301527f743a2070726f706f73616c20616374696f6e20616c726561647920717565756560208301527f64206174206574610000000000000000000000000000000000000000000000006040830152606082019050919050565b60006141b6602c83615030565b91507f576f6c66616765476f7665726e6f7256313a3a70726f706f73653a20746f6f2060008301527f6d616e7920616374696f6e7300000000000000000000000000000000000000006020830152604082019050919050565b600061421c604e83615030565b91507f576f6c66616765476f7665726e6f7256313a3a5f5f717565756553657454696d60008301527f656c6f636b50656e64696e6741646d696e3a2073656e646572206d757374206260208301527f6520676f7620677561726469616e0000000000000000000000000000000000006040830152606082019050919050565b60006142a8603083615030565b91507f576f6c66616765476f7665726e6f7256313a3a70726f706f73653a206d75737460008301527f2070726f7669646520616374696f6e73000000000000000000000000000000006020830152604082019050919050565b600061430e604383615030565b91507f576f6c66616765476f7665726e6f7256313a3a70726f706f73653a2070726f7060008301527f6f73657220766f7465732062656c6f772070726f706f73616c2074687265736860208301527f6f6c6400000000000000000000000000000000000000000000000000000000006040830152606082019050919050565b600061439a603383615030565b91507f576f6c66616765476f7665726e6f7256313a3a63617374566f7465427953696760008301527f3a20696e76616c6964207369676e6174757265000000000000000000000000006020830152604082019050919050565b6000614400603183615030565b91507f576f6c66616765476f7665726e6f7256313a3a5f63617374566f74653a20766f60008301527f74657220616c726561647920766f7465640000000000000000000000000000006020830152604082019050919050565b6000614466601583615030565b91507f7375627472616374696f6e20756e646572666c6f7700000000000000000000006000830152602082019050919050565b6060820160008201516144af6000850182613704565b5060208201516144c26020850182613704565b5060408201516144d56040850182614517565b50505050565b6144e4816150a7565b82525050565b6144f3816150a7565b82525050565b614502816150b1565b82525050565b61451181615178565b82525050565b614520816150be565b82525050565b600061453182613c95565b915061453d8285613731565b60208201915061454d8284613731565b6020820191508190509392505050565b600061456882613fc5565b9150819050919050565b600061457d82614051565b9150819050919050565b600060208201905061459c600083018461354f565b92915050565b60006040820190506145b76000830185613531565b6145c460208301846144ea565b9392505050565b600060a0820190506145e0600083018761354f565b6145ed6020830186613876565b81810360408301526145fe81613d3b565b905081810360608301526146128185613748565b905061462160808301846144ea565b95945050505050565b600060408201905061463f600083018561354f565b61464c60208301846144ea565b9392505050565b6000608082019050614668600083018761354f565b61467560208301866144ea565b6146826040830185613713565b61468f6060830184614508565b95945050505050565b600060a0820190506146ad600083018861354f565b6146ba60208301876144ea565b81810360408301526146cc8186613885565b905081810360608301526146e08185613748565b90506146ef60808301846144ea565b9695505050505050565b600060a08201905061470e600083018861354f565b61471b60208301876144ea565b818103604083015261472d8186613930565b9050818103606083015261474181856137ba565b905061475060808301846144ea565b9695505050505050565b60006080820190508181036000830152614774818761355e565b9050818103602083015261478881866136a6565b9050818103604083015261479c8185613631565b905081810360608301526147b081846135bc565b905095945050505050565b60006020820190506147d06000830184613722565b92915050565b60006080820190506147eb6000830187613722565b6147f86020830186613722565b61480560408301856144ea565b614812606083018461354f565b95945050505050565b60006060820190506148306000830186613722565b61483d60208301856144ea565b61484a6040830184613713565b949350505050565b60006080820190506148676000830187613722565b61487460208301866144f9565b6148816040830185613722565b61488e6060830184613722565b95945050505050565b60006020820190506148ac6000830184613849565b92915050565b60006020820190506148c76000830184613858565b92915050565b60006020820190506148e26000830184613867565b92915050565b6000602082019050818103600083015261490281846138f7565b905092915050565b60006020820190508181036000830152614923816139bf565b9050919050565b6000602082019050818103600083015261494381613a4b565b9050919050565b6000602082019050818103600083015261496381613ab1565b9050919050565b6000602082019050818103600083015261498381613b17565b9050919050565b600060208201905081810360008301526149a381613b7d565b9050919050565b600060208201905081810360008301526149c381613c09565b9050919050565b600060208201905081810360008301526149e381613cd5565b9050919050565b60006020820190508181036000830152614a0381613d7b565b9050919050565b60006020820190508181036000830152614a2381613de1565b9050919050565b60006020820190508181036000830152614a4381613e6d565b9050919050565b60006020820190508181036000830152614a6381613ef9565b9050919050565b60006020820190508181036000830152614a8381613f85565b9050919050565b60006020820190508181036000830152614aa3816140b7565b9050919050565b60006020820190508181036000830152614ac38161411d565b9050919050565b60006020820190508181036000830152614ae3816141a9565b9050919050565b60006020820190508181036000830152614b038161420f565b9050919050565b60006020820190508181036000830152614b238161429b565b9050919050565b60006020820190508181036000830152614b4381614301565b9050919050565b60006020820190508181036000830152614b638161438d565b9050919050565b60006020820190508181036000830152614b83816143f3565b9050919050565b60006020820190508181036000830152614ba381614459565b9050919050565b6000606082019050614bbf6000830184614499565b92915050565b6000602082019050614bda60008301846144ea565b92915050565b600061012082019050614bf6600083018c6144ea565b614c03602083018b613531565b8181036040830152614c15818a61355e565b90508181036060830152614c2981896136a6565b90508181036080830152614c3d8188613631565b905081810360a0830152614c5181876135bc565b9050614c6060c08301866144ea565b614c6d60e08301856144ea565b818103610100830152614c808184613885565b90509a9950505050505050505050565b600061012082019050614ca6600083018c6144ea565b614cb3602083018b61354f565b614cc0604083018a6144ea565b614ccd60608301896144ea565b614cda60808301886144ea565b614ce760a08301876144ea565b614cf460c08301866144ea565b614d0160e0830185613713565b614d0f610100830184613713565b9a9950505050505050505050565b6000604082019050614d3260008301856144ea565b614d3f60208301846144ea565b9392505050565b6000604051905081810181811067ffffffffffffffff82111715614d6957600080fd5b8060405250919050565b600067ffffffffffffffff821115614d8a57600080fd5b602082029050602081019050919050565b600067ffffffffffffffff821115614db257600080fd5b602082029050602081019050919050565b600067ffffffffffffffff821115614dda57600080fd5b602082029050602081019050919050565b600067ffffffffffffffff821115614e0257600080fd5b602082029050602081019050919050565b600067ffffffffffffffff821115614e2a57600080fd5b601f19601f8301169050602081019050919050565b600067ffffffffffffffff821115614e5657600080fd5b601f19601f8301169050602081019050919050565b600067ffffffffffffffff821115614e8257600080fd5b601f19601f8301169050602081019050919050565b600067ffffffffffffffff821115614eae57600080fd5b601f19601f8301169050602081019050919050565b6000819050602082019050919050565b6000819050602082019050919050565b6000819050602082019050919050565b6000819050602082019050919050565b60008190508160005260206000209050919050565b60008190508160005260206000209050919050565b600081519050919050565b600081519050919050565b600081519050919050565b600081519050919050565b600081519050919050565b600081519050919050565b600081519050919050565b600081519050919050565b6000602082019050919050565b6000602082019050919050565b6000602082019050919050565b6000602082019050919050565b600082825260208201905092915050565b600082825260208201905092915050565b600082825260208201905092915050565b600082825260208201905092915050565b600082825260208201905092915050565b600082825260208201905092915050565b600082825260208201905092915050565b600082825260208201905092915050565b600081905092915050565b600061505782615087565b9050919050565b60008115159050919050565b6000819050919050565b6000819050615082826151e7565b919050565b600073ffffffffffffffffffffffffffffffffffffffff82169050919050565b6000819050919050565b600060ff82169050919050565b60006bffffffffffffffffffffffff82169050919050565b60006150e182615154565b9050919050565b60006150f3826150fa565b9050919050565b600061510582615087565b9050919050565b60006151178261511e565b9050919050565b600061512982615087565b9050919050565b600061513b82615074565b9050919050565b600061514d826150a7565b9050919050565b600061515f82615166565b9050919050565b600061517182615087565b9050919050565b6000615183826150be565b9050919050565b82818337600083830152505050565b60005b838110156151b757808201518184015260208101905061519c565b838111156151c6576000848401525b50505050565b6000819050919050565b6000601f19601f8301169050919050565b600881106151f157fe5b50565b6151fd8161504c565b811461520857600080fd5b50565b6152148161505e565b811461521f57600080fd5b50565b61522b8161506a565b811461523657600080fd5b50565b615242816150a7565b811461524d57600080fd5b50565b615259816150b1565b811461526457600080fd5b50565b615270816150be565b811461527b57600080fd5b5056fea365627a7a72315820df995089612192ff6131a8cd7687ad434e75720689df039d425374e84330bf676c6578706572696d656e74616cf564736f6c63430005100040",
  "source": "pragma solidity ^0.5.16;\npragma experimental ABIEncoderV2;\n\ncontract WolfageGovernorV1 {\n    \n    string public constant name = \"Wolfage Governor V1\";\n\n    function quorumVotes() public pure returns (uint) { return 1050e18; } // 1,050 = 5% of Wefi\n\n    function proposalThreshold() public pure returns (uint) { return 21e18; } // 21 = 0.1% of Wefi\n\n    function proposalMaxOperations() public pure returns (uint) { return 10; } // 10 actions\n\n    function votingDelay() public pure returns (uint) { return 1; } // 1 block\n\n    function votingPeriod() public pure returns (uint) { return 17280; } // ~3 days in blocks (assuming 15s blocks)\n\n    TimelockInterface public timelock;\n\n    WefiInterface public wefi;\n\n    address public guardian;\n\n    uint public proposalCount;\n\n    struct Proposal {\n        uint id;\n\n        address proposer;\n\n        uint eta;\n\n        address[] targets;\n\n        uint[] values;\n\n        string[] signatures;\n\n        bytes[] calldatas;\n\n        uint startBlock;\n\n        uint endBlock;\n\n        uint forVotes;\n\n        uint againstVotes;\n\n        bool canceled;\n\n        bool executed;\n\n        mapping (address => Receipt) receipts;\n    }\n\n    struct Receipt {\n        bool hasVoted;\n\n        bool support;\n\n        uint96 votes;\n    }\n\n    enum ProposalState {\n        Pending,\n        Active,\n        Canceled,\n        Defeated,\n        Succeeded,\n        Queued,\n        Expired,\n        Executed\n    }\n\n    mapping (uint => Proposal) public proposals;\n\n    mapping (address => uint) public latestProposalIds;\n\n    bytes32 public constant DOMAIN_TYPEHASH = keccak256(\"EIP712Domain(string name,uint256 chainId,address verifyingContract)\");\n\n    bytes32 public constant BALLOT_TYPEHASH = keccak256(\"Ballot(uint256 proposalId,bool support)\");\n\n    event ProposalCreated(uint id, address proposer, address[] targets, uint[] values, string[] signatures, bytes[] calldatas, uint startBlock, uint endBlock, string description);\n\n    event VoteCast(address voter, uint proposalId, bool support, uint votes);\n\n    event ProposalCanceled(uint id);\n\n    event ProposalQueued(uint id, uint eta);\n\n    event ProposalExecuted(uint id);\n\n    constructor(address timelock_, address wefi_, address guardian_) public {\n        timelock = TimelockInterface(timelock_);\n        wefi = WefiInterface(wefi_);\n        guardian = guardian_;\n    }\n\n    function propose(address[] memory targets, uint[] memory values, string[] memory signatures, bytes[] memory calldatas, string memory description) public returns (uint) {\n        require(wefi.getPriorVotes(msg.sender, sub256(block.number, 1)) > proposalThreshold(), \"WolfageGovernorV1::propose: proposer votes below proposal threshold\");\n        require(targets.length == values.length && targets.length == signatures.length && targets.length == calldatas.length, \"WolfageGovernorV1::propose: proposal function information arity mismatch\");\n        require(targets.length != 0, \"WolfageGovernorV1::propose: must provide actions\");\n        require(targets.length <= proposalMaxOperations(), \"WolfageGovernorV1::propose: too many actions\");\n\n        uint latestProposalId = latestProposalIds[msg.sender];\n        if (latestProposalId != 0) {\n          ProposalState proposersLatestProposalState = state(latestProposalId);\n          require(proposersLatestProposalState != ProposalState.Active, \"WolfageGovernorV1::propose: one live proposal per proposer, found an already active proposal\");\n          require(proposersLatestProposalState != ProposalState.Pending, \"WolfageGovernorV1::propose: one live proposal per proposer, found an already pending proposal\");\n        }\n\n        uint startBlock = add256(block.number, votingDelay());\n        uint endBlock = add256(startBlock, votingPeriod());\n\n        proposalCount++;\n        Proposal memory newProposal = Proposal({\n            id: proposalCount,\n            proposer: msg.sender,\n            eta: 0,\n            targets: targets,\n            values: values,\n            signatures: signatures,\n            calldatas: calldatas,\n            startBlock: startBlock,\n            endBlock: endBlock,\n            forVotes: 0,\n            againstVotes: 0,\n            canceled: false,\n            executed: false\n        });\n\n        proposals[newProposal.id] = newProposal;\n        latestProposalIds[newProposal.proposer] = newProposal.id;\n\n        emit ProposalCreated(newProposal.id, msg.sender, targets, values, signatures, calldatas, startBlock, endBlock, description);\n        return newProposal.id;\n    }\n\n    function queue(uint proposalId) public {\n        require(state(proposalId) == ProposalState.Succeeded, \"WolfageGovernorV1::queue: proposal can only be queued if it is succeeded\");\n        Proposal storage proposal = proposals[proposalId];\n        uint eta = add256(block.timestamp, timelock.delay());\n        for (uint i = 0; i < proposal.targets.length; i++) {\n            _queueOrRevert(proposal.targets[i], proposal.values[i], proposal.signatures[i], proposal.calldatas[i], eta);\n        }\n        proposal.eta = eta;\n        emit ProposalQueued(proposalId, eta);\n    }\n\n    function _queueOrRevert(address target, uint value, string memory signature, bytes memory data, uint eta) internal {\n        require(!timelock.queuedTransactions(keccak256(abi.encode(target, value, signature, data, eta))), \"WolfageGovernorV1::_queueOrRevert: proposal action already queued at eta\");\n        timelock.queueTransaction(target, value, signature, data, eta);\n    }\n\n    function execute(uint proposalId) public payable {\n        require(state(proposalId) == ProposalState.Queued, \"WolfageGovernorV1::execute: proposal can only be executed if it is queued\");\n        Proposal storage proposal = proposals[proposalId];\n        proposal.executed = true;\n        for (uint i = 0; i < proposal.targets.length; i++) {\n            timelock.executeTransaction.value(proposal.values[i])(proposal.targets[i], proposal.values[i], proposal.signatures[i], proposal.calldatas[i], proposal.eta);\n        }\n        emit ProposalExecuted(proposalId);\n    }\n\n    function cancel(uint proposalId) public {\n        ProposalState state = state(proposalId);\n        require(state != ProposalState.Executed, \"WolfageGovernorV1::cancel: cannot cancel executed proposal\");\n\n        Proposal storage proposal = proposals[proposalId];\n        require(msg.sender == guardian || wefi.getPriorVotes(proposal.proposer, sub256(block.number, 1)) < proposalThreshold(), \"WolfageGovernorV1::cancel: proposer above threshold\");\n\n        proposal.canceled = true;\n        for (uint i = 0; i < proposal.targets.length; i++) {\n            timelock.cancelTransaction(proposal.targets[i], proposal.values[i], proposal.signatures[i], proposal.calldatas[i], proposal.eta);\n        }\n\n        emit ProposalCanceled(proposalId);\n    }\n\n    function getActions(uint proposalId) public view returns (address[] memory targets, uint[] memory values, string[] memory signatures, bytes[] memory calldatas) {\n        Proposal storage p = proposals[proposalId];\n        return (p.targets, p.values, p.signatures, p.calldatas);\n    }\n\n    function getReceipt(uint proposalId, address voter) public view returns (Receipt memory) {\n        return proposals[proposalId].receipts[voter];\n    }\n\n    function state(uint proposalId) public view returns (ProposalState) {\n        require(proposalCount >= proposalId && proposalId > 0, \"WolfageGovernorV1::state: invalid proposal id\");\n        Proposal storage proposal = proposals[proposalId];\n        if (proposal.canceled) {\n            return ProposalState.Canceled;\n        } else if (block.number <= proposal.startBlock) {\n            return ProposalState.Pending;\n        } else if (block.number <= proposal.endBlock) {\n            return ProposalState.Active;\n        } else if (proposal.forVotes <= proposal.againstVotes || proposal.forVotes < quorumVotes()) {\n            return ProposalState.Defeated;\n        } else if (proposal.eta == 0) {\n            return ProposalState.Succeeded;\n        } else if (proposal.executed) {\n            return ProposalState.Executed;\n        } else if (block.timestamp >= add256(proposal.eta, timelock.GRACE_PERIOD())) {\n            return ProposalState.Expired;\n        } else {\n            return ProposalState.Queued;\n        }\n    }\n\n    function castVote(uint proposalId, bool support) public {\n        return _castVote(msg.sender, proposalId, support);\n    }\n\n    function castVoteBySig(uint proposalId, bool support, uint8 v, bytes32 r, bytes32 s) public {\n        bytes32 domainSeparator = keccak256(abi.encode(DOMAIN_TYPEHASH, keccak256(bytes(name)), getChainId(), address(this)));\n        bytes32 structHash = keccak256(abi.encode(BALLOT_TYPEHASH, proposalId, support));\n        bytes32 digest = keccak256(abi.encodePacked(\"\\x19\\x01\", domainSeparator, structHash));\n        address signatory = ecrecover(digest, v, r, s);\n        require(signatory != address(0), \"WolfageGovernorV1::castVoteBySig: invalid signature\");\n        return _castVote(signatory, proposalId, support);\n    }\n\n    function _castVote(address voter, uint proposalId, bool support) internal {\n        require(state(proposalId) == ProposalState.Active, \"WolfageGovernorV1::_castVote: voting is closed\");\n        Proposal storage proposal = proposals[proposalId];\n        Receipt storage receipt = proposal.receipts[voter];\n        require(receipt.hasVoted == false, \"WolfageGovernorV1::_castVote: voter already voted\");\n        uint96 votes = wefi.getPriorVotes(voter, proposal.startBlock);\n\n        if (support) {\n            proposal.forVotes = add256(proposal.forVotes, votes);\n        } else {\n            proposal.againstVotes = add256(proposal.againstVotes, votes);\n        }\n\n        receipt.hasVoted = true;\n        receipt.support = support;\n        receipt.votes = votes;\n\n        emit VoteCast(voter, proposalId, support, votes);\n    }\n\n    function __acceptAdmin() public {\n        require(msg.sender == guardian, \"WolfageGovernorV1::__acceptAdmin: sender must be gov guardian\");\n        timelock.acceptAdmin();\n    }\n\n    function __abdicate() public {\n        require(msg.sender == guardian, \"WolfageGovernorV1::__abdicate: sender must be gov guardian\");\n        guardian = address(0);\n    }\n\n    function __queueSetTimelockPendingAdmin(address newPendingAdmin, uint eta) public {\n        require(msg.sender == guardian, \"WolfageGovernorV1::__queueSetTimelockPendingAdmin: sender must be gov guardian\");\n        timelock.queueTransaction(address(timelock), 0, \"setPendingAdmin(address)\", abi.encode(newPendingAdmin), eta);\n    }\n\n    function __executeSetTimelockPendingAdmin(address newPendingAdmin, uint eta) public {\n        require(msg.sender == guardian, \"WolfageGovernorV1::__executeSetTimelockPendingAdmin: sender must be gov guardian\");\n        timelock.executeTransaction(address(timelock), 0, \"setPendingAdmin(address)\", abi.encode(newPendingAdmin), eta);\n    }\n\n    function add256(uint256 a, uint256 b) internal pure returns (uint) {\n        uint c = a + b;\n        require(c >= a, \"addition overflow\");\n        return c;\n    }\n\n    function sub256(uint256 a, uint256 b) internal pure returns (uint) {\n        require(b <= a, \"subtraction underflow\");\n        return a - b;\n    }\n\n    function getChainId() internal pure returns (uint) {\n        uint chainId;\n        assembly { chainId := chainid() }\n        return chainId;\n    }\n}\n\ninterface TimelockInterface {\n    function delay() external view returns (uint);\n    function GRACE_PERIOD() external view returns (uint);\n    function acceptAdmin() external;\n    function queuedTransactions(bytes32 hash) external view returns (bool);\n    function queueTransaction(address target, uint value, string calldata signature, bytes calldata data, uint eta) external returns (bytes32);\n    function cancelTransaction(address target, uint value, string calldata signature, bytes calldata data, uint eta) external;\n    function executeTransaction(address target, uint value, string calldata signature, bytes calldata data, uint eta) external payable returns (bytes memory);\n}\n\ninterface WefiInterface {\n    function getPriorVotes(address account, uint blockNumber) external view returns (uint96);\n}",
  "sourcePath": "/home/infoobjects/development/akshatdev0/wolfage/wolfage-finance/wolfage-finance-ecosystem/contracts/Governance/WolfageGovernorV1.sol",
  "compiler": {
    "name": "solc",
    "version": "0.5.16+commit.9c3226ce.Emscripten.clang"
  },
  "schemaVersion": "3.2.3",
  "updatedAt": "2020-09-08T07:48:02.226Z",
  "devdoc": {
    "methods": {}
  },
  "userdoc": {
    "methods": {}
  }
}